:020000040000FA
:100000004720900183169F019F1785018901831264
:10001000100D9100910D910D013011049F004220AF
:100020001F151F191128243051203030100751207E
:100030001E08242083161E082420900A0030100772
:10004000083C031990010728A200A300A20E0F305C
:10005000A205A30522083120512023083120512078
:100060000800820730343134323433343434353498
:1000700036343734383439344134423443344434F8
:10008000453446342330A000A00B44280800031355
:1000900083161811193099001812981683129817A0
:0E00A00008008316981C52288312990008004D
:00000001FF
