:020000040000FA
:10000000372083169F019F170514831201309F002C
:1000100032201F151F190A28243041201E081420E1
:1000200083161E0814200828A200A300A20E0F3079
:10003000A205A305220821204120230821204120D8
:1000400008008207303431343234333434343534B8
:100050003634373438343934413442344334443418
:10006000453446342330A000A00B34280800031385
:1000700083161811193099001812981683129817C0
:0E00800008008316981C42288312990008007D
:00000001FF
