:020000040000FA
:10000000392083169F019F170514831201309F002A
:1000100034201F151F190A281E08162083161E08D3
:1000200016200D3042200A3042200828A200A300EA
:10003000A20E0F30A205A305220823204220230888
:1000400023204220080082073034313432343334E4
:100050003434353436343734383439344134423436
:1000600043344434453446342330A000A00B3628B2
:1000700008000313831618110630990018129816F9
:10008000981708008316981C4328831299000800CB
:00000001FF
