:020000040000FA
:100000003B2083165F3087009F019F1705148312E2
:1000100001309F0036201F151F190C281E081820BC
:1000200083161E0818200D3045200A3045200A2866
:10003000A200A300A20E0F30A205A30522082520CE
:10004000452023082520452008008207303431341C
:100050003234333434343534363437343834393454
:100060004134423443344434453446342330A000D0
:10007000A00B3828080003138316181106309900C6
:10008000181298168312981708008316981C462891
:0600900083129900080034
:00000001FF
